{
  "_format": "hh-sol-artifact-1",
  "contractName": "Create2Deployer",
  "sourceName": "src/Create2Deployer.sol",
  "abi": [
    {
      "anonymous": false,
      "inputs": [
        {
          "indexed": true,
          "internalType": "address",
          "name": "previousOwner",
          "type": "address"
        },
        {
          "indexed": true,
          "internalType": "address",
          "name": "newOwner",
          "type": "address"
        }
      ],
      "name": "OwnershipTransferred",
      "type": "event"
    },
    {
      "anonymous": false,
      "inputs": [
        {
          "indexed": false,
          "internalType": "address",
          "name": "account",
          "type": "address"
        }
      ],
      "name": "Paused",
      "type": "event"
    },
    {
      "anonymous": false,
      "inputs": [
        {
          "indexed": false,
          "internalType": "address",
          "name": "account",
          "type": "address"
        }
      ],
      "name": "Unpaused",
      "type": "event"
    },
    {
      "inputs": [
        {
          "internalType": "bytes32",
          "name": "salt",
          "type": "bytes32"
        },
        {
          "internalType": "bytes32",
          "name": "codeHash",
          "type": "bytes32"
        }
      ],
      "name": "computeAddress",
      "outputs": [
        {
          "internalType": "address",
          "name": "",
          "type": "address"
        }
      ],
      "stateMutability": "view",
      "type": "function"
    },
    {
      "inputs": [
        {
          "internalType": "bytes32",
          "name": "salt",
          "type": "bytes32"
        },
        {
          "internalType": "bytes32",
          "name": "codeHash",
          "type": "bytes32"
        },
        {
          "internalType": "address",
          "name": "deployer",
          "type": "address"
        }
      ],
      "name": "computeAddressWithDeployer",
      "outputs": [
        {
          "internalType": "address",
          "name": "",
          "type": "address"
        }
      ],
      "stateMutability": "pure",
      "type": "function"
    },
    {
      "inputs": [
        {
          "internalType": "uint256",
          "name": "value",
          "type": "uint256"
        },
        {
          "internalType": "bytes32",
          "name": "salt",
          "type": "bytes32"
        },
        {
          "internalType": "bytes",
          "name": "code",
          "type": "bytes"
        }
      ],
      "name": "deploy",
      "outputs": [],
      "stateMutability": "nonpayable",
      "type": "function"
    },
    {
      "inputs": [
        {
          "internalType": "uint256",
          "name": "value",
          "type": "uint256"
        },
        {
          "internalType": "bytes32",
          "name": "salt",
          "type": "bytes32"
        }
      ],
      "name": "deployERC1820Implementer",
      "outputs": [],
      "stateMutability": "nonpayable",
      "type": "function"
    },
    {
      "inputs": [],
      "name": "owner",
      "outputs": [
        {
          "internalType": "address",
          "name": "",
          "type": "address"
        }
      ],
      "stateMutability": "view",
      "type": "function"
    },
    {
      "inputs": [],
      "name": "pause",
      "outputs": [],
      "stateMutability": "nonpayable",
      "type": "function"
    },
    {
      "inputs": [],
      "name": "paused",
      "outputs": [
        {
          "internalType": "bool",
          "name": "",
          "type": "bool"
        }
      ],
      "stateMutability": "view",
      "type": "function"
    },
    {
      "inputs": [],
      "name": "renounceOwnership",
      "outputs": [],
      "stateMutability": "nonpayable",
      "type": "function"
    },
    {
      "inputs": [
        {
          "internalType": "address",
          "name": "newOwner",
          "type": "address"
        }
      ],
      "name": "transferOwnership",
      "outputs": [],
      "stateMutability": "nonpayable",
      "type": "function"
    },
    {
      "inputs": [],
      "name": "unpause",
      "outputs": [],
      "stateMutability": "nonpayable",
      "type": "function"
    },
    {
      "stateMutability": "payable",
      "type": "receive"
    }
  ],
  "bytecode": "0x608060405234801561001057600080fd5b5061001a3361002c565b6000805460ff60a01b1916905561007c565b600080546001600160a01b038381166001600160a01b0319831681178455604051919092169283917f8be0079c531659141344cd1fd0a4f28419497f9722a3daafe3b4186f6b6457e09190a35050565b6109098061008b6000396000f3fe6080604052600436106100955760003560e01c806366cfa0571161005957806366cfa0571461015f578063715018a61461017f5780638456cb59146101945780638da5cb5b146101a9578063f2fde38b146101c757600080fd5b8063076c37b2146100a15780633f4ba83a146100c3578063481286e6146100d857806356299481146101155780635c975abb1461013557600080fd5b3661009c57005b600080fd5b3480156100ad57600080fd5b506100c16100bc366004610637565b6101e7565b005b3480156100cf57600080fd5b506100c1610221565b3480156100e457600080fd5b506100f86100f3366004610637565b610233565b6040516001600160a01b0390911681526020015b60405180910390f35b34801561012157600080fd5b506100f8610130366004610675565b610246565b34801561014157600080fd5b50600054600160a01b900460ff16604051901515815260200161010c565b34801561016b57600080fd5b506100c161017a3660046106c0565b61025b565b34801561018b57600080fd5b506100c1610274565b3480156101a057600080fd5b506100c1610286565b3480156101b557600080fd5b506000546001600160a01b03166100f8565b3480156101d357600080fd5b506100c16101e2366004610784565b610296565b6101ef610314565b61021c8282604051806020016102049061062a565b601f1982820381018352601f90910116604052610361565b505050565b610229610465565b6102316104bf565b565b600061023f8383610514565b9392505050565b600061025384848461051d565b949350505050565b610263610314565b61026e838383610361565b50505050565b61027c610465565b6102316000610547565b61028e610465565b610231610597565b61029e610465565b6001600160a01b0381166103085760405162461bcd60e51b815260206004820152602660248201527f4f776e61626c653a206e6577206f776e657220697320746865207a65726f206160448201526564647265737360d01b60648201526084015b60405180910390fd5b61031181610547565b50565b600054600160a01b900460ff16156102315760405162461bcd60e51b815260206004820152601060248201526f14185d5cd8589b194e881c185d5cd95960821b60448201526064016102ff565b6000834710156103b35760405162461bcd60e51b815260206004820152601d60248201527f437265617465323a20696e73756666696369656e742062616c616e636500000060448201526064016102ff565b81516000036104045760405162461bcd60e51b815260206004820181905260248201527f437265617465323a2062797465636f6465206c656e677468206973207a65726f60448201526064016102ff565b8282516020840186f590506001600160a01b03811661023f5760405162461bcd60e51b815260206004820152601960248201527f437265617465323a204661696c6564206f6e206465706c6f790000000000000060448201526064016102ff565b6000546001600160a01b031633146102315760405162461bcd60e51b815260206004820181905260248201527f4f776e61626c653a2063616c6c6572206973206e6f7420746865206f776e657260448201526064016102ff565b6104c76105da565b6000805460ff60a01b191690557f5db9ee0a495bf2e6ff9c91a7834c1ba4fdd244a5e8aa4e537bd38aeae4b073aa335b6040516001600160a01b03909116815260200160405180910390a1565b600061023f8383305b6000604051836040820152846020820152828152600b8101905060ff815360559020949350505050565b600080546001600160a01b038381166001600160a01b0319831681178455604051919092169283917f8be0079c531659141344cd1fd0a4f28419497f9722a3daafe3b4186f6b6457e09190a35050565b61059f610314565b6000805460ff60a01b1916600160a01b1790557f62e78cea01bee320cd4e420270b5ea74000d11b0c9f74754ebdbfc544b05a2586104f73390565b600054600160a01b900460ff166102315760405162461bcd60e51b815260206004820152601460248201527314185d5cd8589b194e881b9bdd081c185d5cd95960621b60448201526064016102ff565b610134806107a083390190565b6000806040838503121561064a57600080fd5b50508035926020909101359150565b80356001600160a01b038116811461067057600080fd5b919050565b60008060006060848603121561068a57600080fd5b83359250602084013591506106a160408501610659565b90509250925092565b634e487b7160e01b600052604160045260246000fd5b6000806000606084860312156106d557600080fd5b8335925060208401359150604084013567ffffffffffffffff808211156106fb57600080fd5b818601915086601f83011261070f57600080fd5b813581811115610721576107216106aa565b604051601f8201601f19908116603f01168101908382118183101715610749576107496106aa565b8160405282815289602084870101111561076257600080fd5b8260208601602083013760006020848301015280955050505050509250925092565b60006020828403121561079657600080fd5b61023f8261065956fe608060405234801561001057600080fd5b50610114806100206000396000f3fe6080604052348015600f57600080fd5b506004361060285760003560e01c8063249cb3fa14602d575b600080fd5b603c603836600460a4565b604e565b60405190815260200160405180910390f35b6000828152602081815260408083206001600160a01b038516845290915281205460ff16607b576000609d565b7fa2ef4600d742022d532d4747cb3547474667d6f13804902513b2ec01c848f4b45b9392505050565b6000806040838503121560b657600080fd5b8235915060208301356001600160a01b038116811460d357600080fd5b80915050925092905056fea2646970667358221220b014f47145f5a82e8d37e64d0269b9efee4aa0e95806d5fa73e955c727bfc22c64736f6c63430008130033a2646970667358221220d75926e80c4a7517355f00af637d75d71d118cd57058dca1a02470d67b490f5864736f6c63430008130033",
  "linkReferences": {},
  "deployedLinkReferences": {}
}