{
  "_format": "hh-sol-artifact-1",
  "contractName": "WormholeDeployer",
  "sourceName": "src/WormDeployer.sol",
  "abi": [
    {
      "anonymous": false,
      "inputs": [
        {
          "indexed": false,
          "internalType": "address",
          "name": "deployedAddress",
          "type": "address"
        },
        {
          "indexed": false,
          "internalType": "bytes32",
          "name": "salt",
          "type": "bytes32"
        }
      ],
      "name": "ContractDeployed",
      "type": "event"
    },
    {
      "inputs": [
        {
          "internalType": "bytes32",
          "name": "salt",
          "type": "bytes32"
        },
        {
          "internalType": "bytes",
          "name": "bytecode",
          "type": "bytes"
        }
      ],
      "name": "computeAddress",
      "outputs": [
        {
          "internalType": "address",
          "name": "",
          "type": "address"
        }
      ],
      "stateMutability": "view",
      "type": "function"
    },
    {
      "inputs": [
        {
          "internalType": "bytes32",
          "name": "salt",
          "type": "bytes32"
        },
        {
          "internalType": "bytes",
          "name": "bytecode",
          "type": "bytes"
        }
      ],
      "name": "deploy",
      "outputs": [
        {
          "internalType": "address",
          "name": "",
          "type": "address"
        }
      ],
      "stateMutability": "nonpayable",
      "type": "function"
    },
    {
      "inputs": [
        {
          "internalType": "uint16[]",
          "name": "targetChains",
          "type": "uint16[]"
        },
        {
          "internalType": "address",
          "name": "targetAddress",
          "type": "address"
        },
        {
          "internalType": "bytes",
          "name": "bytecode",
          "type": "bytes"
        },
        {
          "internalType": "bytes32",
          "name": "salt",
          "type": "bytes32"
        },
        {
          "internalType": "bool",
          "name": "initializable",
          "type": "bool"
        },
        {
          "internalType": "bytes",
          "name": "initializeData",
          "type": "bytes"
        }
      ],
      "name": "deployAcrossChains",
      "outputs": [],
      "stateMutability": "payable",
      "type": "function"
    },
    {
      "inputs": [
        {
          "internalType": "bytes32",
          "name": "salt",
          "type": "bytes32"
        },
        {
          "internalType": "bytes",
          "name": "bytecode",
          "type": "bytes"
        },
        {
          "internalType": "bool",
          "name": "initializable",
          "type": "bool"
        },
        {
          "internalType": "bytes",
          "name": "initializeData",
          "type": "bytes"
        }
      ],
      "name": "deployContract",
      "outputs": [
        {
          "internalType": "address",
          "name": "",
          "type": "address"
        }
      ],
      "stateMutability": "nonpayable",
      "type": "function"
    },
    {
      "inputs": [
        {
          "internalType": "uint16[]",
          "name": "chainId",
          "type": "uint16[]"
        }
      ],
      "name": "getCost",
      "outputs": [
        {
          "internalType": "uint256",
          "name": "",
          "type": "uint256"
        }
      ],
      "stateMutability": "view",
      "type": "function"
    },
    {
      "inputs": [
        {
          "internalType": "address",
          "name": "_wormholeRelayer",
          "type": "address"
        }
      ],
      "name": "initialize",
      "outputs": [],
      "stateMutability": "nonpayable",
      "type": "function"
    },
    {
      "inputs": [
        {
          "internalType": "bytes",
          "name": "payload",
          "type": "bytes"
        },
        {
          "internalType": "bytes[]",
          "name": "",
          "type": "bytes[]"
        },
        {
          "internalType": "bytes32",
          "name": "",
          "type": "bytes32"
        },
        {
          "internalType": "uint16",
          "name": "",
          "type": "uint16"
        },
        {
          "internalType": "bytes32",
          "name": "",
          "type": "bytes32"
        }
      ],
      "name": "receiveWormholeMessages",
      "outputs": [],
      "stateMutability": "payable",
      "type": "function"
    },
    {
      "inputs": [],
      "name": "wormholeRelayer",
      "outputs": [
        {
          "internalType": "contract IWormholeRelayer",
          "name": "",
          "type": "address"
        }
      ],
      "stateMutability": "view",
      "type": "function"
    },
    {
      "stateMutability": "payable",
      "type": "receive"
    }
  ],
  "bytecode": "0x608060405234801561001057600080fd5b50611553806100206000396000f3fe60806040526004361061007f5760003560e01c8063c4d66de81161004e578063c4d66de81461011e578063ca9ffe941461015b578063cdcb760a1461017b578063da25b7251461019b57600080fd5b80633e75b90c1461008b578063529dca32146100c857806369f51dbe146100dd57806383281452146100f057600080fd5b3661008657005b600080fd5b34801561009757600080fd5b506100ab6100a6366004610d1e565b6101bb565b6040516001600160a01b0390911681526020015b60405180910390f35b6100db6100d6366004610ddb565b6103d0565b005b6100db6100eb366004610f69565b6104c0565b3480156100fc57600080fd5b5061011061010b366004611023565b6107e2565b6040519081526020016100bf565b34801561012a57600080fd5b506100db610139366004611060565b600080546001600160a01b0319166001600160a01b0392909216919091179055565b34801561016757600080fd5b506100ab61017636600461107d565b6108c1565b34801561018757600080fd5b506100ab61019636600461107d565b6108dd565b3480156101a757600080fd5b506000546100ab906001600160a01b031681565b6040516366e5bb0560e11b81526000908190309063cdcb760a906101e59089908990600401611114565b6020604051808303816000875af1925050508015610220575060408051601f3d908101601f1916820190925261021d9181019061112d565b60015b6102d65761022c61114a565b806308c379a00361028b5750610240611166565b8061024b575061028d565b8060405160200161025c91906111f0565b60408051601f198184030181529082905262461bcd60e51b82526102829160040161122b565b60405180910390fd5b505b3d8080156102b7576040519150601f19603f3d011682016040523d82523d6000602084013e6102bc565b606091505b506102c6816108eb565b60405160200161025c919061123e565b604080516001600160a01b03831681526020810189905291925082917fb085ff794f342ed78acc7791d067e28a931e614b52476c0305795e1ff0a154bc910160405180910390a15083156103c7576000816001600160a01b03168460405161033e9190611294565b6000604051808303816000865af19150503d806000811461037b576040519150601f19603f3d011682016040523d82523d6000602084013e610380565b606091505b50509050806103c55760405162461bcd60e51b81526020600482015260116024820152701a5b9a5d1a585b1a5e994819985a5b1959607a1b6044820152606401610282565b505b95945050505050565b600080600080888060200190518101906103ea91906112ff565b93509350935093506000610400848685856101bb565b9050600061040e85876108c1565b9050806001600160a01b0316826001600160a01b0316146104715760405162461bcd60e51b815260206004820152601b60248201527f4465706c6f796d656e742061646472657373206d69736d6174636800000000006044820152606401610282565b604080516001600160a01b0384168152602081018790527fb085ff794f342ed78acc7791d067e28a931e614b52476c0305795e1ff0a154bc910160405180910390a15050505050505050505050565b60006104cc84866108c1565b905060005b8751811015610724576000868686866040516020016104f39493929190611374565b604051602081830303815290604052905060008060009054906101000a90046001600160a01b03166001600160a01b031663c23ee3c38b858151811061053b5761053b6113b2565b60209081029190910101516040516001600160e01b031960e084901b16815261ffff909116600482015260006024820152622dc6c060448201526064016040805180830381865afa158015610594573d6000803e3d6000fd5b505050506040513d601f19601f820116820180604052508101906105b891906113c8565b509050803410156106155760405162461bcd60e51b815260206004820152602160248201527f496e73756666696369656e742066756e647320666f72206465706c6f796d656e6044820152601d60fa1b6064820152608401610282565b6000548a516001600160a01b0390911690638fecdd029083908d9087908110610640576106406113b2565b60200260200101518c866000622dc6c06040518763ffffffff1660e01b81526004016106709594939291906113ec565b60206040518083038185885af1935050505080156106ab575060408051601f3d908101601f191682019092526106a89181019061142e565b60015b61070e576106b761114a565b806308c379a00361070257506106cb611166565b806106d65750610704565b8a84815181106106e8576106e86113b2565b60200260200101518160405160200161025c929190611458565b505b3d6000803e3d6000fd5b505050808061071c906114da565b9150506104d1565b506000610733858786866101bb565b9050816001600160a01b0316816001600160a01b0316146107965760405162461bcd60e51b815260206004820152601b60248201527f4465706c6f796d656e742061646472657373206d69736d6174636800000000006044820152606401610282565b604080516001600160a01b0383168152602081018790527fb085ff794f342ed78acc7791d067e28a931e614b52476c0305795e1ff0a154bc910160405180910390a15050505050505050565b600080805b83518110156108ba576000805485516001600160a01b039091169063c23ee3c39087908590811061081a5761081a6113b2565b60209081029190910101516040516001600160e01b031960e084901b16815261ffff909116600482015260006024820152622dc6c060448201526064016040805180830381865afa158015610873573d6000803e3d6000fd5b505050506040513d601f19601f8201168201806040525081019061089791906113c8565b5090506108a481846114f3565b92505080806108b2906114da565b9150506107e7565b5092915050565b60006108d4838380519060200120610b04565b90505b92915050565b60006108d460008484610b11565b60408051808201909152601081526f181899199a1a9b1b9c1cb0b131b232b360811b6020820152815160609190600090610926906002611506565b6109319060026114f3565b67ffffffffffffffff81111561094957610949610c46565b6040519080825280601f01601f191660200182016040528015610973576020820181803683370190505b509050600360fc1b8160008151811061098e5761098e6113b2565b60200101906001600160f81b031916908160001a905350600f60fb1b816001815181106109bd576109bd6113b2565b60200101906001600160f81b031916908160001a90535060005b8451811015610afc578260048683815181106109f5576109f56113b2565b016020015182516001600160f81b031990911690911c60f81c908110610a1d57610a1d6113b2565b01602001516001600160f81b03191682610a38836002611506565b610a439060026114f3565b81518110610a5357610a536113b2565b60200101906001600160f81b031916908160001a90535082858281518110610a7d57610a7d6113b2565b602091010151815160f89190911c600f16908110610a9d57610a9d6113b2565b01602001516001600160f81b03191682610ab8836002611506565b610ac39060036114f3565b81518110610ad357610ad36113b2565b60200101906001600160f81b031916908160001a90535080610af4816114da565b9150506109d7565b509392505050565b60006108d4838330610c1c565b600083471015610b635760405162461bcd60e51b815260206004820152601d60248201527f437265617465323a20696e73756666696369656e742062616c616e63650000006044820152606401610282565b8151600003610bb45760405162461bcd60e51b815260206004820181905260248201527f437265617465323a2062797465636f6465206c656e677468206973207a65726f6044820152606401610282565b8282516020840186f590506001600160a01b038116610c155760405162461bcd60e51b815260206004820152601960248201527f437265617465323a204661696c6564206f6e206465706c6f79000000000000006044820152606401610282565b9392505050565b6000604051836040820152846020820152828152600b8101905060ff815360559020949350505050565b634e487b7160e01b600052604160045260246000fd5b601f8201601f1916810167ffffffffffffffff81118282101715610c8257610c82610c46565b6040525050565b600067ffffffffffffffff821115610ca357610ca3610c46565b50601f01601f191660200190565b600082601f830112610cc257600080fd5b8135610ccd81610c89565b604051610cda8282610c5c565b828152856020848701011115610cef57600080fd5b82602086016020830137600092810160200192909252509392505050565b8015158114610d1b57600080fd5b50565b60008060008060808587031215610d3457600080fd5b84359350602085013567ffffffffffffffff80821115610d5357600080fd5b610d5f88838901610cb1565b945060408701359150610d7182610d0d565b90925060608601359080821115610d8757600080fd5b50610d9487828801610cb1565b91505092959194509250565b600067ffffffffffffffff821115610dba57610dba610c46565b5060051b60200190565b803561ffff81168114610dd657600080fd5b919050565b600080600080600060a08688031215610df357600080fd5b853567ffffffffffffffff80821115610e0b57600080fd5b610e1789838a01610cb1565b9650602091508188013581811115610e2e57600080fd5b8801601f81018a13610e3f57600080fd5b8035610e4a81610da0565b604051610e578282610c5c565b82815260059290921b830185019185810191508c831115610e7757600080fd5b8584015b83811015610eaf57803586811115610e935760008081fd5b610ea18f8983890101610cb1565b845250918601918601610e7b565b50985050505060408801359450610ecb91505060608701610dc4565b949793965091946080013592915050565b600082601f830112610eed57600080fd5b81356020610efa82610da0565b604051610f078282610c5c565b83815260059390931b8501820192828101915086841115610f2757600080fd5b8286015b84811015610f4957610f3c81610dc4565b8352918301918301610f2b565b509695505050505050565b6001600160a01b0381168114610d1b57600080fd5b60008060008060008060c08789031215610f8257600080fd5b863567ffffffffffffffff80821115610f9a57600080fd5b610fa68a838b01610edc565b975060208901359150610fb882610f54565b90955060408801359080821115610fce57600080fd5b610fda8a838b01610cb1565b95506060890135945060808901359150610ff382610d0d565b90925060a0880135908082111561100957600080fd5b5061101689828a01610cb1565b9150509295509295509295565b60006020828403121561103557600080fd5b813567ffffffffffffffff81111561104c57600080fd5b61105884828501610edc565b949350505050565b60006020828403121561107257600080fd5b8135610c1581610f54565b6000806040838503121561109057600080fd5b82359150602083013567ffffffffffffffff8111156110ae57600080fd5b6110ba85828601610cb1565b9150509250929050565b60005b838110156110df5781810151838201526020016110c7565b50506000910152565b600081518084526111008160208601602086016110c4565b601f01601f19169290920160200192915050565b82815260406020820152600061105860408301846110e8565b60006020828403121561113f57600080fd5b8151610c1581610f54565b600060033d11156111635760046000803e5060005160e01c5b90565b600060443d10156111745790565b6040516003193d81016004833e81513d67ffffffffffffffff81602484011181841117156111a457505050505090565b82850191508151818111156111bc5750505050505090565b843d87010160208285010111156111d65750505050505090565b6111e560208286010187610c5c565b509095945050505050565b7202232b83637bcb6b2b73a103330b4b632b21d1606d1b81526000825161121e8160138501602087016110c4565b9190910160130192915050565b6020815260006108d460208301846110e8565b7f4465706c6f796d656e74206661696c65642077697468206c6f772d6c6576656c81526701032b93937b91d160c51b6020820152600082516112878160288501602087016110c4565b9190910160280192915050565b600082516112a68184602087016110c4565b9190910192915050565b600082601f8301126112c157600080fd5b81516112cc81610c89565b6040516112d98282610c5c565b8281528560208487010111156112ee57600080fd5b6103c78360208301602088016110c4565b6000806000806080858703121561131557600080fd5b845167ffffffffffffffff8082111561132d57600080fd5b611339888389016112b0565b9550602087015194506040870151915061135282610d0d565b60608701519193508082111561136757600080fd5b50610d94878288016112b0565b60808152600061138760808301876110e8565b856020840152841515604084015282810360608401526113a781856110e8565b979650505050505050565b634e487b7160e01b600052603260045260246000fd5b600080604083850312156113db57600080fd5b505080516020909101519092909150565b61ffff861681526001600160a01b038516602082015260a06040820181905260009061141a908301866110e8565b606083019490945250608001529392505050565b60006020828403121561144057600080fd5b815167ffffffffffffffff81168114610c1557600080fd5b7f576f726d686f6c652072656c61796572206661696c656420666f722063686169815261037160f51b602082015261ffff60f01b8360f01b1660228201526101d160f51b6024820152600082516114b68160268501602087016110c4565b919091016026019392505050565b634e487b7160e01b600052601160045260246000fd5b6000600182016114ec576114ec6114c4565b5060010190565b808201808211156108d7576108d76114c4565b80820281158282048414176108d7576108d76114c456fea2646970667358221220da007525ee81064c97d6382cf37bc937f0989caaa6c3f38a87c434dfdd4bfd1364736f6c63430008130033",
  "linkReferences": {},
  "deployedLinkReferences": {}
}