{
  "_format": "hh-sol-artifact-1",
  "contractName": "WormholeDeployer",
  "sourceName": "src/WormDeployer.sol",
  "abi": [
    {
      "anonymous": false,
      "inputs": [
        {
          "indexed": false,
          "internalType": "address",
          "name": "deployedAddress",
          "type": "address"
        },
        {
          "indexed": false,
          "internalType": "bytes32",
          "name": "salt",
          "type": "bytes32"
        }
      ],
      "name": "ContractDeployed",
      "type": "event"
    },
    {
      "inputs": [
        {
          "internalType": "bytes32",
          "name": "salt",
          "type": "bytes32"
        },
        {
          "internalType": "bytes",
          "name": "bytecode",
          "type": "bytes"
        }
      ],
      "name": "computeAddress",
      "outputs": [
        {
          "internalType": "address",
          "name": "",
          "type": "address"
        }
      ],
      "stateMutability": "view",
      "type": "function"
    },
    {
      "inputs": [
        {
          "internalType": "bytes32",
          "name": "salt",
          "type": "bytes32"
        },
        {
          "internalType": "bytes",
          "name": "bytecode",
          "type": "bytes"
        }
      ],
      "name": "deploy",
      "outputs": [
        {
          "internalType": "address",
          "name": "",
          "type": "address"
        }
      ],
      "stateMutability": "nonpayable",
      "type": "function"
    },
    {
      "inputs": [
        {
          "internalType": "uint16[]",
          "name": "targetChains",
          "type": "uint16[]"
        },
        {
          "internalType": "address",
          "name": "targetAddress",
          "type": "address"
        },
        {
          "internalType": "bytes",
          "name": "bytecode",
          "type": "bytes"
        },
        {
          "internalType": "bytes32",
          "name": "salt",
          "type": "bytes32"
        },
        {
          "internalType": "bool",
          "name": "initializable",
          "type": "bool"
        },
        {
          "internalType": "bytes",
          "name": "initializeData",
          "type": "bytes"
        }
      ],
      "name": "deployAcrossChains",
      "outputs": [],
      "stateMutability": "payable",
      "type": "function"
    },
    {
      "inputs": [
        {
          "internalType": "bytes32",
          "name": "salt",
          "type": "bytes32"
        },
        {
          "internalType": "bytes",
          "name": "bytecode",
          "type": "bytes"
        },
        {
          "internalType": "bool",
          "name": "initializable",
          "type": "bool"
        },
        {
          "internalType": "bytes",
          "name": "initializeData",
          "type": "bytes"
        }
      ],
      "name": "deployContract",
      "outputs": [
        {
          "internalType": "address",
          "name": "",
          "type": "address"
        }
      ],
      "stateMutability": "nonpayable",
      "type": "function"
    },
    {
      "inputs": [
        {
          "internalType": "uint16[]",
          "name": "chainId",
          "type": "uint16[]"
        }
      ],
      "name": "getCost",
      "outputs": [
        {
          "internalType": "uint256",
          "name": "",
          "type": "uint256"
        }
      ],
      "stateMutability": "view",
      "type": "function"
    },
    {
      "inputs": [
        {
          "internalType": "address",
          "name": "_wormholeRelayer",
          "type": "address"
        }
      ],
      "name": "initialize",
      "outputs": [],
      "stateMutability": "nonpayable",
      "type": "function"
    },
    {
      "inputs": [
        {
          "internalType": "bytes",
          "name": "payload",
          "type": "bytes"
        },
        {
          "internalType": "bytes[]",
          "name": "",
          "type": "bytes[]"
        },
        {
          "internalType": "bytes32",
          "name": "",
          "type": "bytes32"
        },
        {
          "internalType": "uint16",
          "name": "",
          "type": "uint16"
        },
        {
          "internalType": "bytes32",
          "name": "",
          "type": "bytes32"
        }
      ],
      "name": "receiveWormholeMessages",
      "outputs": [],
      "stateMutability": "payable",
      "type": "function"
    },
    {
      "inputs": [],
      "name": "wormholeRelayer",
      "outputs": [
        {
          "internalType": "contract IWormholeRelayer",
          "name": "",
          "type": "address"
        }
      ],
      "stateMutability": "view",
      "type": "function"
    },
    {
      "stateMutability": "payable",
      "type": "receive"
    }
  ],
  "bytecode": "0x608060405234801561001057600080fd5b5061001a3361001f565b61006f565b600080546001600160a01b038381166001600160a01b0319831681178455604051919092169283917f8be0079c531659141344cd1fd0a4f28419497f9722a3daafe3b4186f6b6457e09190a35050565b6115898061007e6000396000f3fe6080604052600436106100ab5760003560e01c80638328145211610064578063832814521461019a5780638da5cb5b146101c8578063ca9ffe94146101e6578063cdcb760a14610206578063da25b72514610226578063f2fde38b1461024657600080fd5b80633e51c7cd146100b7578063485cc955146100cc578063498eacbe146101155780635210eb5614610152578063529dca3214610172578063715018a61461018557600080fd5b366100b257005b600080fd5b6100ca6100c5366004610ef5565b610266565b005b3480156100d857600080fd5b506100ca6100e7366004610f8f565b600180546001600160a01b039384166001600160a01b03199182161790915560028054929093169116179055565b34801561012157600080fd5b50610135610130366004610fc8565b6105c6565b6040516001600160a01b0390911681526020015b60405180910390f35b34801561015e57600080fd5b50600254610135906001600160a01b031681565b6100ca61018036600461100f565b610704565b34801561019157600080fd5b506100ca6107e9565b3480156101a657600080fd5b506101ba6101b5366004611110565b6107fd565b604051908152602001610149565b3480156101d457600080fd5b506000546001600160a01b0316610135565b3480156101f257600080fd5b50610135610201366004610fc8565b6108dc565b34801561021257600080fd5b50610135610221366004610fc8565b6108ef565b34801561023257600080fd5b50600154610135906001600160a01b031681565b34801561025257600080fd5b506100ca61026136600461114d565b6108fd565b600061027283856108dc565b905060005b855181101561050557600085856040516020016102959291906111ba565b60405160208183030381529060405290506000600160009054906101000a90046001600160a01b03166001600160a01b031663c23ee3c38985815181106102de576102de6111dc565b60209081029190910101516040516001600160e01b031960e084901b16815261ffff909116600482015260006024820152622dc6c060448201526064016040805180830381865afa158015610337573d6000803e3d6000fd5b505050506040513d601f19601f8201168201806040525081019061035b91906111f2565b509050803410156103bd5760405162461bcd60e51b815260206004820152602160248201527f496e73756666696369656e742066756e647320666f72206465706c6f796d656e6044820152601d60fa1b60648201526084015b60405180910390fd5b60015488516001600160a01b0390911690638fecdd029083908b90879081106103e8576103e86111dc565b60209081029190910101516002546040516001600160e01b031960e086901b16815261042b92916001600160a01b0316908890600090622dc6c090600401611216565b60206040518083038185885af193505050508015610466575060408051601f3d908101601f1916820190925261046391810190611258565b60015b6104ef57610472611282565b806308c379a0036104e3575061048661129e565b8061049157506104e5565b8884815181106104a3576104a36111dc565b6020026020010151816040516020016104bd929190611328565b60408051601f198184030181529082905262461bcd60e51b82526103b491600401611394565b505b3d6000803e3d6000fd5b50505080806104fd906113bd565b915050610277565b5081156105bf57600061051884866105c6565b9050816001600160a01b0316816001600160a01b03161461057b5760405162461bcd60e51b815260206004820152601b60248201527f4465706c6f796d656e742061646472657373206d69736d61746368000000000060448201526064016103b4565b604080516001600160a01b0383168152602081018690527fb085ff794f342ed78acc7791d067e28a931e614b52476c0305795e1ff0a154bc910160405180910390a1505b5050505050565b6040516366e5bb0560e11b81526000908190309063cdcb760a906105f090879087906004016113d6565b6020604051808303816000875af192505050801561062b575060408051601f3d908101601f19168201909252610628918101906113ef565b60015b6106b257610637611282565b806308c379a003610667575061064b61129e565b806106565750610669565b806040516020016104bd919061140c565b505b3d808015610693576040519150601f19603f3d011682016040523d82523d6000602084013e610698565b606091505b506106a281610976565b6040516020016104bd9190611447565b604080516001600160a01b03831681526020810187905291925082917fb085ff794f342ed78acc7791d067e28a931e614b52476c0305795e1ff0a154bc910160405180910390a1505b90505b92915050565b6000808680602001905181019061071b919061149d565b91509150600061072b82846105c6565b9050600061073983856108dc565b9050806001600160a01b0316826001600160a01b03161461079c5760405162461bcd60e51b815260206004820152601b60248201527f4465706c6f796d656e742061646472657373206d69736d61746368000000000060448201526064016103b4565b604080516001600160a01b0384168152602081018590527fb085ff794f342ed78acc7791d067e28a931e614b52476c0305795e1ff0a154bc910160405180910390a1505050505050505050565b6107f1610b8f565b6107fb6000610be9565b565b600080805b83518110156108d55760015484516000916001600160a01b03169063c23ee3c390879085908110610835576108356111dc565b60209081029190910101516040516001600160e01b031960e084901b16815261ffff909116600482015260006024820152622dc6c060448201526064016040805180830381865afa15801561088e573d6000803e3d6000fd5b505050506040513d601f19601f820116820180604052508101906108b291906111f2565b5090506108bf8184611529565b92505080806108cd906113bd565b915050610802565b5092915050565b60006106fb838380519060200120610c39565b60006106fb60008484610c46565b610905610b8f565b6001600160a01b03811661096a5760405162461bcd60e51b815260206004820152602660248201527f4f776e61626c653a206e6577206f776e657220697320746865207a65726f206160448201526564647265737360d01b60648201526084016103b4565b61097381610be9565b50565b60408051808201909152601081526f181899199a1a9b1b9c1cb0b131b232b360811b60208201528151606091906000906109b190600261153c565b6109bc906002611529565b67ffffffffffffffff8111156109d4576109d4610d7b565b6040519080825280601f01601f1916602001820160405280156109fe576020820181803683370190505b509050600360fc1b81600081518110610a1957610a196111dc565b60200101906001600160f81b031916908160001a905350600f60fb1b81600181518110610a4857610a486111dc565b60200101906001600160f81b031916908160001a90535060005b8451811015610b8757826004868381518110610a8057610a806111dc565b016020015182516001600160f81b031990911690911c60f81c908110610aa857610aa86111dc565b01602001516001600160f81b03191682610ac383600261153c565b610ace906002611529565b81518110610ade57610ade6111dc565b60200101906001600160f81b031916908160001a90535082858281518110610b0857610b086111dc565b602091010151815160f89190911c600f16908110610b2857610b286111dc565b01602001516001600160f81b03191682610b4383600261153c565b610b4e906003611529565b81518110610b5e57610b5e6111dc565b60200101906001600160f81b031916908160001a90535080610b7f816113bd565b915050610a62565b509392505050565b6000546001600160a01b031633146107fb5760405162461bcd60e51b815260206004820181905260248201527f4f776e61626c653a2063616c6c6572206973206e6f7420746865206f776e657260448201526064016103b4565b600080546001600160a01b038381166001600160a01b0319831681178455604051919092169283917f8be0079c531659141344cd1fd0a4f28419497f9722a3daafe3b4186f6b6457e09190a35050565b60006106fb838330610d51565b600083471015610c985760405162461bcd60e51b815260206004820152601d60248201527f437265617465323a20696e73756666696369656e742062616c616e636500000060448201526064016103b4565b8151600003610ce95760405162461bcd60e51b815260206004820181905260248201527f437265617465323a2062797465636f6465206c656e677468206973207a65726f60448201526064016103b4565b8282516020840186f590506001600160a01b038116610d4a5760405162461bcd60e51b815260206004820152601960248201527f437265617465323a204661696c6564206f6e206465706c6f790000000000000060448201526064016103b4565b9392505050565b6000604051836040820152846020820152828152600b8101905060ff815360559020949350505050565b634e487b7160e01b600052604160045260246000fd5b601f8201601f1916810167ffffffffffffffff81118282101715610db757610db7610d7b565b6040525050565b600067ffffffffffffffff821115610dd857610dd8610d7b565b5060051b60200190565b803561ffff81168114610df457600080fd5b919050565b600082601f830112610e0a57600080fd5b81356020610e1782610dbe565b604051610e248282610d91565b83815260059390931b8501820192828101915086841115610e4457600080fd5b8286015b84811015610e6657610e5981610de2565b8352918301918301610e48565b509695505050505050565b600067ffffffffffffffff821115610e8b57610e8b610d7b565b50601f01601f191660200190565b600082601f830112610eaa57600080fd5b8135610eb581610e71565b604051610ec28282610d91565b828152856020848701011115610ed757600080fd5b82602086016020830137600092810160200192909252509392505050565b60008060008060808587031215610f0b57600080fd5b843567ffffffffffffffff80821115610f2357600080fd5b610f2f88838901610df9565b95506020870135915080821115610f4557600080fd5b50610f5287828801610e99565b9350506040850135915060608501358015158114610f6f57600080fd5b939692955090935050565b6001600160a01b038116811461097357600080fd5b60008060408385031215610fa257600080fd5b8235610fad81610f7a565b91506020830135610fbd81610f7a565b809150509250929050565b60008060408385031215610fdb57600080fd5b82359150602083013567ffffffffffffffff811115610ff957600080fd5b61100585828601610e99565b9150509250929050565b600080600080600060a0868803121561102757600080fd5b853567ffffffffffffffff8082111561103f57600080fd5b61104b89838a01610e99565b965060209150818801358181111561106257600080fd5b8801601f81018a1361107357600080fd5b803561107e81610dbe565b60405161108b8282610d91565b82815260059290921b830185019185810191508c8311156110ab57600080fd5b8584015b838110156110e3578035868111156110c75760008081fd5b6110d58f8983890101610e99565b8452509186019186016110af565b509850505050604088013594506110ff91505060608701610de2565b949793965091946080013592915050565b60006020828403121561112257600080fd5b813567ffffffffffffffff81111561113957600080fd5b61114584828501610df9565b949350505050565b60006020828403121561115f57600080fd5b81356106fb81610f7a565b60005b8381101561118557818101518382015260200161116d565b50506000910152565b600081518084526111a681602086016020860161116a565b601f01601f19169290920160200192915050565b6040815260006111cd604083018561118e565b90508260208301529392505050565b634e487b7160e01b600052603260045260246000fd5b6000806040838503121561120557600080fd5b505080516020909101519092909150565b61ffff861681526001600160a01b038516602082015260a0604082018190526000906112449083018661118e565b606083019490945250608001529392505050565b60006020828403121561126a57600080fd5b815167ffffffffffffffff811681146106fb57600080fd5b600060033d111561129b5760046000803e5060005160e01c5b90565b600060443d10156112ac5790565b6040516003193d81016004833e81513d67ffffffffffffffff81602484011181841117156112dc57505050505090565b82850191508151818111156112f45750505050505090565b843d870101602082850101111561130e5750505050505090565b61131d60208286010187610d91565b509095945050505050565b7f576f726d686f6c652072656c61796572206661696c656420666f722063686169815261037160f51b602082015261ffff60f01b8360f01b1660228201526101d160f51b60248201526000825161138681602685016020870161116a565b919091016026019392505050565b6020815260006106fb602083018461118e565b634e487b7160e01b600052601160045260246000fd5b6000600182016113cf576113cf6113a7565b5060010190565b828152604060208201526000611145604083018461118e565b60006020828403121561140157600080fd5b81516106fb81610f7a565b7202232b83637bcb6b2b73a103330b4b632b21d1606d1b81526000825161143a81601385016020870161116a565b9190910160130192915050565b7f4465706c6f796d656e74206661696c65642077697468206c6f772d6c6576656c81526701032b93937b91d160c51b60208201526000825161149081602885016020870161116a565b9190910160280192915050565b600080604083850312156114b057600080fd5b825167ffffffffffffffff8111156114c757600080fd5b8301601f810185136114d857600080fd5b80516114e381610e71565b6040516114f08282610d91565b82815287602084860101111561150557600080fd5b61151683602083016020870161116a565b6020969096015195979596505050505050565b808201808211156106fe576106fe6113a7565b80820281158282048414176106fe576106fe6113a756fea2646970667358221220b201b7d75d8054ea39c138ea17ae7528194b78202a0c07b45a1df0c396f2360964736f6c63430008130033",
  "deployedBytecode": "0x60806040526004361061007f5760003560e01c8063c4d66de81161004e578063c4d66de81461011e578063ca9ffe941461015b578063cdcb760a1461017b578063da25b7251461019b57600080fd5b80633e75b90c1461008b578063529dca32146100c857806369f51dbe146100dd57806383281452146100f057600080fd5b3661008657005b600080fd5b34801561009757600080fd5b506100ab6100a6366004610d1e565b6101bb565b6040516001600160a01b0390911681526020015b60405180910390f35b6100db6100d6366004610ddb565b6103d0565b005b6100db6100eb366004610f69565b6104c0565b3480156100fc57600080fd5b5061011061010b366004611023565b6107e2565b6040519081526020016100bf565b34801561012a57600080fd5b506100db610139366004611060565b600080546001600160a01b0319166001600160a01b0392909216919091179055565b34801561016757600080fd5b506100ab61017636600461107d565b6108c1565b34801561018757600080fd5b506100ab61019636600461107d565b6108dd565b3480156101a757600080fd5b506000546100ab906001600160a01b031681565b6040516366e5bb0560e11b81526000908190309063cdcb760a906101e59089908990600401611114565b6020604051808303816000875af1925050508015610220575060408051601f3d908101601f1916820190925261021d9181019061112d565b60015b6102d65761022c61114a565b806308c379a00361028b5750610240611166565b8061024b575061028d565b8060405160200161025c91906111f0565b60408051601f198184030181529082905262461bcd60e51b82526102829160040161122b565b60405180910390fd5b505b3d8080156102b7576040519150601f19603f3d011682016040523d82523d6000602084013e6102bc565b606091505b506102c6816108eb565b60405160200161025c919061123e565b604080516001600160a01b03831681526020810189905291925082917fb085ff794f342ed78acc7791d067e28a931e614b52476c0305795e1ff0a154bc910160405180910390a15083156103c7576000816001600160a01b03168460405161033e9190611294565b6000604051808303816000865af19150503d806000811461037b576040519150601f19603f3d011682016040523d82523d6000602084013e610380565b606091505b50509050806103c55760405162461bcd60e51b81526020600482015260116024820152701a5b9a5d1a585b1a5e994819985a5b1959607a1b6044820152606401610282565b505b95945050505050565b600080600080888060200190518101906103ea91906112ff565b93509350935093506000610400848685856101bb565b9050600061040e85876108c1565b9050806001600160a01b0316826001600160a01b0316146104715760405162461bcd60e51b815260206004820152601b60248201527f4465706c6f796d656e742061646472657373206d69736d6174636800000000006044820152606401610282565b604080516001600160a01b0384168152602081018790527fb085ff794f342ed78acc7791d067e28a931e614b52476c0305795e1ff0a154bc910160405180910390a15050505050505050505050565b60006104cc84866108c1565b905060005b8751811015610724576000868686866040516020016104f39493929190611374565b604051602081830303815290604052905060008060009054906101000a90046001600160a01b03166001600160a01b031663c23ee3c38b858151811061053b5761053b6113b2565b60209081029190910101516040516001600160e01b031960e084901b16815261ffff909116600482015260006024820152622dc6c060448201526064016040805180830381865afa158015610594573d6000803e3d6000fd5b505050506040513d601f19601f820116820180604052508101906105b891906113c8565b509050803410156106155760405162461bcd60e51b815260206004820152602160248201527f496e73756666696369656e742066756e647320666f72206465706c6f796d656e6044820152601d60fa1b6064820152608401610282565b6000548a516001600160a01b0390911690638fecdd029083908d9087908110610640576106406113b2565b60200260200101518c866000622dc6c06040518763ffffffff1660e01b81526004016106709594939291906113ec565b60206040518083038185885af1935050505080156106ab575060408051601f3d908101601f191682019092526106a89181019061142e565b60015b61070e576106b761114a565b806308c379a00361070257506106cb611166565b806106d65750610704565b8a84815181106106e8576106e86113b2565b60200260200101518160405160200161025c929190611458565b505b3d6000803e3d6000fd5b505050808061071c906114da565b9150506104d1565b506000610733858786866101bb565b9050816001600160a01b0316816001600160a01b0316146107965760405162461bcd60e51b815260206004820152601b60248201527f4465706c6f796d656e742061646472657373206d69736d6174636800000000006044820152606401610282565b604080516001600160a01b0383168152602081018790527fb085ff794f342ed78acc7791d067e28a931e614b52476c0305795e1ff0a154bc910160405180910390a15050505050505050565b600080805b83518110156108ba576000805485516001600160a01b039091169063c23ee3c39087908590811061081a5761081a6113b2565b60209081029190910101516040516001600160e01b031960e084901b16815261ffff909116600482015260006024820152622dc6c060448201526064016040805180830381865afa158015610873573d6000803e3d6000fd5b505050506040513d601f19601f8201168201806040525081019061089791906113c8565b5090506108a481846114f3565b92505080806108b2906114da565b9150506107e7565b5092915050565b60006108d4838380519060200120610b04565b90505b92915050565b60006108d460008484610b11565b60408051808201909152601081526f181899199a1a9b1b9c1cb0b131b232b360811b6020820152815160609190600090610926906002611506565b6109319060026114f3565b67ffffffffffffffff81111561094957610949610c46565b6040519080825280601f01601f191660200182016040528015610973576020820181803683370190505b509050600360fc1b8160008151811061098e5761098e6113b2565b60200101906001600160f81b031916908160001a905350600f60fb1b816001815181106109bd576109bd6113b2565b60200101906001600160f81b031916908160001a90535060005b8451811015610afc578260048683815181106109f5576109f56113b2565b016020015182516001600160f81b031990911690911c60f81c908110610a1d57610a1d6113b2565b01602001516001600160f81b03191682610a38836002611506565b610a439060026114f3565b81518110610a5357610a536113b2565b60200101906001600160f81b031916908160001a90535082858281518110610a7d57610a7d6113b2565b602091010151815160f89190911c600f16908110610a9d57610a9d6113b2565b01602001516001600160f81b03191682610ab8836002611506565b610ac39060036114f3565b81518110610ad357610ad36113b2565b60200101906001600160f81b031916908160001a90535080610af4816114da565b9150506109d7565b509392505050565b60006108d4838330610c1c565b600083471015610b635760405162461bcd60e51b815260206004820152601d60248201527f437265617465323a20696e73756666696369656e742062616c616e63650000006044820152606401610282565b8151600003610bb45760405162461bcd60e51b815260206004820181905260248201527f437265617465323a2062797465636f6465206c656e677468206973207a65726f6044820152606401610282565b8282516020840186f590506001600160a01b038116610c155760405162461bcd60e51b815260206004820152601960248201527f437265617465323a204661696c6564206f6e206465706c6f79000000000000006044820152606401610282565b9392505050565b6000604051836040820152846020820152828152600b8101905060ff815360559020949350505050565b634e487b7160e01b600052604160045260246000fd5b601f8201601f1916810167ffffffffffffffff81118282101715610c8257610c82610c46565b6040525050565b600067ffffffffffffffff821115610ca357610ca3610c46565b50601f01601f191660200190565b600082601f830112610cc257600080fd5b8135610ccd81610c89565b604051610cda8282610c5c565b828152856020848701011115610cef57600080fd5b82602086016020830137600092810160200192909252509392505050565b8015158114610d1b57600080fd5b50565b60008060008060808587031215610d3457600080fd5b84359350602085013567ffffffffffffffff80821115610d5357600080fd5b610d5f88838901610cb1565b945060408701359150610d7182610d0d565b90925060608601359080821115610d8757600080fd5b50610d9487828801610cb1565b91505092959194509250565b600067ffffffffffffffff821115610dba57610dba610c46565b5060051b60200190565b803561ffff81168114610dd657600080fd5b919050565b600080600080600060a08688031215610df357600080fd5b853567ffffffffffffffff80821115610e0b57600080fd5b610e1789838a01610cb1565b9650602091508188013581811115610e2e57600080fd5b8801601f81018a13610e3f57600080fd5b8035610e4a81610da0565b604051610e578282610c5c565b82815260059290921b830185019185810191508c831115610e7757600080fd5b8584015b83811015610eaf57803586811115610e935760008081fd5b610ea18f8983890101610cb1565b845250918601918601610e7b565b50985050505060408801359450610ecb91505060608701610dc4565b949793965091946080013592915050565b600082601f830112610eed57600080fd5b81356020610efa82610da0565b604051610f078282610c5c565b83815260059390931b8501820192828101915086841115610f2757600080fd5b8286015b84811015610f4957610f3c81610dc4565b8352918301918301610f2b565b509695505050505050565b6001600160a01b0381168114610d1b57600080fd5b60008060008060008060c08789031215610f8257600080fd5b863567ffffffffffffffff80821115610f9a57600080fd5b610fa68a838b01610edc565b975060208901359150610fb882610f54565b90955060408801359080821115610fce57600080fd5b610fda8a838b01610cb1565b95506060890135945060808901359150610ff382610d0d565b90925060a0880135908082111561100957600080fd5b5061101689828a01610cb1565b9150509295509295509295565b60006020828403121561103557600080fd5b813567ffffffffffffffff81111561104c57600080fd5b61105884828501610edc565b949350505050565b60006020828403121561107257600080fd5b8135610c1581610f54565b6000806040838503121561109057600080fd5b82359150602083013567ffffffffffffffff8111156110ae57600080fd5b6110ba85828601610cb1565b9150509250929050565b60005b838110156110df5781810151838201526020016110c7565b50506000910152565b600081518084526111008160208601602086016110c4565b601f01601f19169290920160200192915050565b82815260406020820152600061105860408301846110e8565b60006020828403121561113f57600080fd5b8151610c1581610f54565b600060033d11156111635760046000803e5060005160e01c5b90565b600060443d10156111745790565b6040516003193d81016004833e81513d67ffffffffffffffff81602484011181841117156111a457505050505090565b82850191508151818111156111bc5750505050505090565b843d87010160208285010111156111d65750505050505090565b6111e560208286010187610c5c565b509095945050505050565b7202232b83637bcb6b2b73a103330b4b632b21d1606d1b81526000825161121e8160138501602087016110c4565b9190910160130192915050565b6020815260006108d460208301846110e8565b7f4465706c6f796d656e74206661696c65642077697468206c6f772d6c6576656c81526701032b93937b91d160c51b6020820152600082516112878160288501602087016110c4565b9190910160280192915050565b600082516112a68184602087016110c4565b9190910192915050565b600082601f8301126112c157600080fd5b81516112cc81610c89565b6040516112d98282610c5c565b8281528560208487010111156112ee57600080fd5b6103c78360208301602088016110c4565b6000806000806080858703121561131557600080fd5b845167ffffffffffffffff8082111561132d57600080fd5b611339888389016112b0565b9550602087015194506040870151915061135282610d0d565b60608701519193508082111561136757600080fd5b50610d94878288016112b0565b60808152600061138760808301876110e8565b856020840152841515604084015282810360608401526113a781856110e8565b979650505050505050565b634e487b7160e01b600052603260045260246000fd5b600080604083850312156113db57600080fd5b505080516020909101519092909150565b61ffff861681526001600160a01b038516602082015260a06040820181905260009061141a908301866110e8565b606083019490945250608001529392505050565b60006020828403121561144057600080fd5b815167ffffffffffffffff81168114610c1557600080fd5b7f576f726d686f6c652072656c61796572206661696c656420666f722063686169815261037160f51b602082015261ffff60f01b8360f01b1660228201526101d160f51b6024820152600082516114b68160268501602087016110c4565b919091016026019392505050565b634e487b7160e01b600052601160045260246000fd5b6000600182016114ec576114ec6114c4565b5060010190565b808201808211156108d7576108d76114c4565b80820281158282048414176108d7576108d76114c456fea2646970667358221220da007525ee81064c97d6382cf37bc937f0989caaa6c3f38a87c434dfdd4bfd1364736f6c63430008130033",
  "linkReferences": {},
  "deployedLinkReferences": {}
}